{
  "contractName": "DelegateV1",
  "abi": [
    {
      "constant": false,
      "inputs": [
        {
          "name": "_storageHash",
          "type": "string"
        }
      ],
      "name": "newStorage",
      "outputs": [],
      "payable": false,
      "stateMutability": "nonpayable",
      "type": "function"
    },
    {
      "constant": true,
      "inputs": [
        {
          "name": "_nonce",
          "type": "uint256"
        }
      ],
      "name": "getNewStorageHash",
      "outputs": [
        {
          "name": "",
          "type": "string"
        }
      ],
      "payable": false,
      "stateMutability": "view",
      "type": "function"
    }
  ],
  "bytecode": "0x608060405234801561001057600080fd5b50610463806100206000396000f30060806040526004361061004c576000357c0100000000000000000000000000000000000000000000000000000000900463ffffffff1680635dc9fff114610051578063b8f70337146100f7575b600080fd5b34801561005d57600080fd5b5061007c60048036038101908080359060200190929190505050610160565b6040518080602001828103825283818151815260200191508051906020019080838360005b838110156100bc5780820151818401526020810190506100a1565b50505050905090810190601f1680156100e95780820380516001836020036101000a031916815260200191505b509250505060405180910390f35b34801561010357600080fd5b5061015e600480360381019080803590602001908201803590602001908080601f016020809104026020016040519081016040528093929190818152602001838380828437820191505050505050919291929050505061028a565b005b60606000809054906101000a900473ffffffffffffffffffffffffffffffffffffffff1673ffffffffffffffffffffffffffffffffffffffff16633cc21414836040518263ffffffff167c010000000000000000000000000000000000000000000000000000000002815260040180828152602001915050600060405180830381600087803b1580156101f257600080fd5b505af1158015610206573d6000803e3d6000fd5b505050506040513d6000823e3d601f19601f82011682018060405250602081101561023057600080fd5b81019080805164010000000081111561024857600080fd5b8281019050602081018481111561025e57600080fd5b815185600182028301116401000000008211171561027b57600080fd5b50509291905050509050919050565b6000809054906101000a900473ffffffffffffffffffffffffffffffffffffffff1673ffffffffffffffffffffffffffffffffffffffff166388d4ea78826040518263ffffffff167c01000000000000000000000000000000000000000000000000000000000281526004018080602001828103825283818151815260200191508051906020019080838360005b83811015610333578082015181840152602081019050610318565b50505050905090810190601f1680156103605780820380516001836020036101000a031916815260200191505b5092505050600060405180830381600087803b15801561037f57600080fd5b505af1158015610393573d6000803e3d6000fd5b505050506000809054906101000a900473ffffffffffffffffffffffffffffffffffffffff1673ffffffffffffffffffffffffffffffffffffffff1663625d69986040518163ffffffff167c0100000000000000000000000000000000000000000000000000000000028152600401600060405180830381600087803b15801561041c57600080fd5b505af1158015610430573d6000803e3d6000fd5b50505050505600a165627a7a72305820895827b59746234f0354627ca2fa2e18da151f9cd07c5c31da0877291ad4d1480029",
  "source": "\npragma solidity ^0.4.18;\n\nimport \"../node_modules/openzeppelin-solidity/contracts/math/SafeMath.sol\";\nimport \"./StorageState.sol\";\n\n\ncontract DelegateV1 is StorageState {\n  using SafeMath for uint256;\n  \n  function newStorage(string _storageHash) public {\n    _storage.setStorageHash(_storageHash);\n    _storage.addToNonce();\n  }\n\n  function getNewStorageHash(uint _nonce) view public  returns (string) {\n    return _storage.getStorageHash(_nonce); \n  }\n}",
  "sourcePath": "/Users/jasperdegooijer/Documents/proxyTest/contracts/DelegateV1.sol",
  "compiler": {
    "name": "solc",
    "version": "0.4.24+commit.e67f0147.Emscripten.clang"
  },
  "schemaVersion": "2.0.1",
  "updatedAt": "2018-12-18T22:03:59.388Z"
}