{
  "contractName": "DelegateV2",
  "abi": [
    {
      "constant": false,
      "inputs": [
        {
          "name": "_storageHash",
          "type": "string"
        }
      ],
      "name": "newStorage",
      "outputs": [],
      "payable": false,
      "stateMutability": "nonpayable",
      "type": "function"
    },
    {
      "constant": true,
      "inputs": [
        {
          "name": "_nonce",
          "type": "uint256"
        }
      ],
      "name": "getNewStorageHash",
      "outputs": [
        {
          "name": "",
          "type": "string"
        }
      ],
      "payable": false,
      "stateMutability": "view",
      "type": "function"
    }
  ],
  "bytecode": "0x608060405234801561001057600080fd5b5061055c806100206000396000f30060806040526004361061004c576000357c0100000000000000000000000000000000000000000000000000000000900463ffffffff1680635dc9fff114610051578063b8f70337146100f7575b600080fd5b34801561005d57600080fd5b5061007c60048036038101908080359060200190929190505050610160565b6040518080602001828103825283818151815260200191508051906020019080838360005b838110156100bc5780820151818401526020810190506100a1565b50505050905090810190601f1680156100e95780820380516001836020036101000a031916815260200191505b509250505060405180910390f35b34801561010357600080fd5b5061015e600480360381019080803590602001908201803590602001908080601f016020809104026020016040519081016040528093929190818152602001838380828437820191505050505050919291929050505061028a565b005b60606000809054906101000a900473ffffffffffffffffffffffffffffffffffffffff1673ffffffffffffffffffffffffffffffffffffffff16633cc21414836040518263ffffffff167c010000000000000000000000000000000000000000000000000000000002815260040180828152602001915050600060405180830381600087803b1580156101f257600080fd5b505af1158015610206573d6000803e3d6000fd5b505050506040513d6000823e3d601f19601f82011682018060405250602081101561023057600080fd5b81019080805164010000000081111561024857600080fd5b8281019050602081018481111561025e57600080fd5b815185600182028301116401000000008211171561027b57600080fd5b50509291905050509050919050565b6000809054906101000a900473ffffffffffffffffffffffffffffffffffffffff1673ffffffffffffffffffffffffffffffffffffffff1663893d20e86040518163ffffffff167c0100000000000000000000000000000000000000000000000000000000028152600401602060405180830381600087803b15801561030f57600080fd5b505af1158015610323573d6000803e3d6000fd5b505050506040513d602081101561033957600080fd5b810190808051906020019092919050505073ffffffffffffffffffffffffffffffffffffffff163373ffffffffffffffffffffffffffffffffffffffff1614151561038357600080fd5b6000809054906101000a900473ffffffffffffffffffffffffffffffffffffffff1673ffffffffffffffffffffffffffffffffffffffff166388d4ea78826040518263ffffffff167c01000000000000000000000000000000000000000000000000000000000281526004018080602001828103825283818151815260200191508051906020019080838360005b8381101561042c578082015181840152602081019050610411565b50505050905090810190601f1680156104595780820380516001836020036101000a031916815260200191505b5092505050600060405180830381600087803b15801561047857600080fd5b505af115801561048c573d6000803e3d6000fd5b505050506000809054906101000a900473ffffffffffffffffffffffffffffffffffffffff1673ffffffffffffffffffffffffffffffffffffffff1663625d69986040518163ffffffff167c0100000000000000000000000000000000000000000000000000000000028152600401600060405180830381600087803b15801561051557600080fd5b505af1158015610529573d6000803e3d6000fd5b50505050505600a165627a7a723058208a8b67d2c6e2777a009a6f68658bb20f39572a50fddd663cb077f41e65161c5e0029",
  "source": "\npragma solidity ^0.4.18;\n\nimport \"./DelegateV1.sol\";\nimport \"./StorageState.sol\";\n\ncontract DelegateV2 is StorageState {\n  \n\n  modifier onlyOwner() {\n    require(msg.sender == _storage.getOwner());\n    _;\n  }\n\n  function newStorage(string _storageHash) public onlyOwner{\n    _storage.setStorageHash(_storageHash);\n    _storage.addToNonce();\n  }\n\n  function getNewStorageHash(uint _nonce) view public returns (string) {\n    return _storage.getStorageHash(_nonce); \n  }\n}",
  "sourcePath": "/Users/jasperdegooijer/Documents/proxyTest/contracts/DelegateV2.sol",
  "compiler": {
    "name": "solc",
    "version": "0.4.24+commit.e67f0147.Emscripten.clang"
  },
  "schemaVersion": "2.0.1",
  "updatedAt": "2018-12-18T22:03:59.392Z"
}