{
  "contractName": "RegistryImplementationV1",
  "abi": [
    {
      "constant": false,
      "inputs": [],
      "name": "renounceOwnership",
      "outputs": [],
      "payable": false,
      "stateMutability": "nonpayable",
      "type": "function"
    },
    {
      "constant": true,
      "inputs": [
        {
          "name": "",
          "type": "uint256"
        }
      ],
      "name": "dappIds",
      "outputs": [
        {
          "name": "",
          "type": "uint256"
        }
      ],
      "payable": false,
      "stateMutability": "view",
      "type": "function"
    },
    {
      "constant": true,
      "inputs": [],
      "name": "owner",
      "outputs": [
        {
          "name": "",
          "type": "address"
        }
      ],
      "payable": false,
      "stateMutability": "view",
      "type": "function"
    },
    {
      "constant": true,
      "inputs": [],
      "name": "isOwner",
      "outputs": [
        {
          "name": "",
          "type": "bool"
        }
      ],
      "payable": false,
      "stateMutability": "view",
      "type": "function"
    },
    {
      "constant": false,
      "inputs": [
        {
          "name": "newOwner",
          "type": "address"
        }
      ],
      "name": "transferOwnership",
      "outputs": [],
      "payable": false,
      "stateMutability": "nonpayable",
      "type": "function"
    },
    {
      "anonymous": false,
      "inputs": [
        {
          "indexed": true,
          "name": "previousOwner",
          "type": "address"
        },
        {
          "indexed": true,
          "name": "newOwner",
          "type": "address"
        }
      ],
      "name": "OwnershipTransferred",
      "type": "event"
    },
    {
      "constant": true,
      "inputs": [],
      "name": "test",
      "outputs": [
        {
          "name": "",
          "type": "string"
        }
      ],
      "payable": false,
      "stateMutability": "pure",
      "type": "function"
    },
    {
      "constant": false,
      "inputs": [
        {
          "name": "_storageHash",
          "type": "string"
        }
      ],
      "name": "addNewDapp",
      "outputs": [],
      "payable": false,
      "stateMutability": "nonpayable",
      "type": "function"
    },
    {
      "constant": true,
      "inputs": [],
      "name": "getDappIds",
      "outputs": [
        {
          "name": "",
          "type": "uint256[]"
        }
      ],
      "payable": false,
      "stateMutability": "view",
      "type": "function"
    },
    {
      "constant": true,
      "inputs": [
        {
          "name": "_id",
          "type": "uint256"
        }
      ],
      "name": "getDapp",
      "outputs": [
        {
          "name": "",
          "type": "string"
        }
      ],
      "payable": false,
      "stateMutability": "view",
      "type": "function"
    }
  ],
  "bytecode": "0x6080604052336000806101000a81548173ffffffffffffffffffffffffffffffffffffffff021916908373ffffffffffffffffffffffffffffffffffffffff1602179055506000809054906101000a900473ffffffffffffffffffffffffffffffffffffffff1673ffffffffffffffffffffffffffffffffffffffff16600073ffffffffffffffffffffffffffffffffffffffff167f8be0079c531659141344cd1fd0a4f28419497f9722a3daafe3b4186f6b6457e060405160405180910390a36108ea806100cf6000396000f300608060405260043610610098576000357c0100000000000000000000000000000000000000000000000000000000900463ffffffff168062b975501461009d57806353d8591914610106578063715018a6146101ac57806387bc3e57146101c35780638da5cb5b146102045780638f32d59b1461025b578063c0689c061461028a578063f2fde38b146102f6578063f8a8fd6d14610339575b600080fd5b3480156100a957600080fd5b50610104600480360381019080803590602001908201803590602001908080601f01602080910402602001604051908101604052809392919081815260200183838082843782019150505050505091929192905050506103c9565b005b34801561011257600080fd5b5061013160048036038101908080359060200190929190505050610420565b6040518080602001828103825283818151815260200191508051906020019080838360005b83811015610171578082015181840152602081019050610156565b50505050905090810190601f16801561019e5780820380516001836020036101000a031916815260200191505b509250505060405180910390f35b3480156101b857600080fd5b506101c16104d5565b005b3480156101cf57600080fd5b506101ee600480360381019080803590602001909291905050506105a7565b6040518082815260200191505060405180910390f35b34801561021057600080fd5b506102196105ca565b604051808273ffffffffffffffffffffffffffffffffffffffff1673ffffffffffffffffffffffffffffffffffffffff16815260200191505060405180910390f35b34801561026757600080fd5b506102706105f3565b604051808215151515815260200191505060405180910390f35b34801561029657600080fd5b5061029f61064a565b6040518080602001828103825283818151815260200191508051906020019060200280838360005b838110156102e25780820151818401526020810190506102c7565b505050509050019250505060405180910390f35b34801561030257600080fd5b50610337600480360381019080803573ffffffffffffffffffffffffffffffffffffffff1690602001909291905050506106a2565b005b34801561034557600080fd5b5061034e6106c1565b6040518080602001828103825283818151815260200191508051906020019080838360005b8381101561038e578082015181840152602081019050610373565b50505050905090810190601f1680156103bb5780820380516001836020036101000a031916815260200191505b509250505060405180910390f35b6103d16105f3565b15156103dc57600080fd5b806001600060045481526020019081526020016000209080519060200190610405929190610819565b5061041c60016004546106fe90919063ffffffff16565b5050565b6060600160008381526020019081526020016000208054600181600116156101000203166002900480601f0160208091040260200160405190810160405280929190818152602001828054600181600116156101000203166002900480156104c95780601f1061049e576101008083540402835291602001916104c9565b820191906000526020600020905b8154815290600101906020018083116104ac57829003601f168201915b50505050509050919050565b6104dd6105f3565b15156104e857600080fd5b600073ffffffffffffffffffffffffffffffffffffffff166000809054906101000a900473ffffffffffffffffffffffffffffffffffffffff1673ffffffffffffffffffffffffffffffffffffffff167f8be0079c531659141344cd1fd0a4f28419497f9722a3daafe3b4186f6b6457e060405160405180910390a360008060006101000a81548173ffffffffffffffffffffffffffffffffffffffff021916908373ffffffffffffffffffffffffffffffffffffffff160217905550565b6003818154811015156105b657fe5b906000526020600020016000915090505481565b60008060009054906101000a900473ffffffffffffffffffffffffffffffffffffffff16905090565b60008060009054906101000a900473ffffffffffffffffffffffffffffffffffffffff1673ffffffffffffffffffffffffffffffffffffffff163373ffffffffffffffffffffffffffffffffffffffff1614905090565b6060600380548060200260200160405190810160405280929190818152602001828054801561069857602002820191906000526020600020905b815481526020019060010190808311610684575b5050505050905090565b6106aa6105f3565b15156106b557600080fd5b6106be8161071f565b50565b60606040805190810160405280600481526020017f7465737400000000000000000000000000000000000000000000000000000000815250905090565b600080828401905083811015151561071557600080fd5b8091505092915050565b600073ffffffffffffffffffffffffffffffffffffffff168173ffffffffffffffffffffffffffffffffffffffff161415151561075b57600080fd5b8073ffffffffffffffffffffffffffffffffffffffff166000809054906101000a900473ffffffffffffffffffffffffffffffffffffffff1673ffffffffffffffffffffffffffffffffffffffff167f8be0079c531659141344cd1fd0a4f28419497f9722a3daafe3b4186f6b6457e060405160405180910390a3806000806101000a81548173ffffffffffffffffffffffffffffffffffffffff021916908373ffffffffffffffffffffffffffffffffffffffff16021790555050565b828054600181600116156101000203166002900490600052602060002090601f016020900481019282601f1061085a57805160ff1916838001178555610888565b82800160010185558215610888579182015b8281111561088757825182559160200191906001019061086c565b5b5090506108959190610899565b5090565b6108bb91905b808211156108b757600081600090555060010161089f565b5090565b905600a165627a7a72305820fe279b510493440cfab61f0a4fb9cc62ce14fee445f1cdb9bc321b1ad87288370029",
  "source": "pragma solidity ^0.4.24;\n\nimport \"node_modules/openzeppelin-solidity/contracts/math/SafeMath.sol\";\nimport \"./RegistryStorage.sol\";\n\ncontract RegistryImplementationV1 is RegistryStorage {\n  using SafeMath for uint256;\n  \n  function test() public pure returns(string){\n    return \"test\";\n  }\n\n  function addNewDapp(string _storageHash)\n  public \n  onlyOwner(){\n    idToDapp[nonce] = _storageHash;\n    nonce.add(1); \n  }\n\n  function getDappIds()\n  public\n  view\n  returns(uint[]) {\n    return dappIds;\n  }\n    \n  function getDapp(uint _id)\n  public \n  view\n  returns (string){\n    return idToDapp[_id];\n  }\n}",
  "sourcePath": "/Users/jasperdegooijer/Documents/proxyTest/contracts/RegistryImplementationV1.sol",
  "compiler": {
    "name": "solc",
    "version": "0.4.24+commit.e67f0147.Emscripten.clang"
  },
  "schemaVersion": "2.0.1",
  "updatedAt": "2018-12-18T15:04:01.891Z"
}